{
  "_format": "hh-sol-artifact-1",
  "contractName": "MinerAPI",
  "sourceName": "contracts/filecoinMockAPIs/MinerAPI.sol",
  "abi": [
    {
      "inputs": [
        {
          "internalType": "bytes",
          "name": "_owner",
          "type": "bytes"
        }
      ],
      "stateMutability": "nonpayable",
      "type": "constructor"
    },
    {
      "inputs": [
        {
          "components": [
            {
              "internalType": "bytes",
              "name": "new_beneficiary",
              "type": "bytes"
            },
            {
              "internalType": "int256",
              "name": "new_quota",
              "type": "int256"
            },
            {
              "internalType": "uint64",
              "name": "new_expiration",
              "type": "uint64"
            }
          ],
          "internalType": "struct MinerTypes.ChangeBeneficiaryParams",
          "name": "params",
          "type": "tuple"
        }
      ],
      "name": "change_beneficiary",
      "outputs": [],
      "stateMutability": "nonpayable",
      "type": "function"
    },
    {
      "inputs": [],
      "name": "get_available_balance",
      "outputs": [
        {
          "components": [
            {
              "internalType": "int256",
              "name": "available_balance",
              "type": "int256"
            }
          ],
          "internalType": "struct MinerTypes.GetAvailableBalanceReturn",
          "name": "params",
          "type": "tuple"
        }
      ],
      "stateMutability": "pure",
      "type": "function"
    },
    {
      "inputs": [],
      "name": "get_beneficiary",
      "outputs": [
        {
          "components": [
            {
              "components": [
                {
                  "internalType": "bytes",
                  "name": "beneficiary",
                  "type": "bytes"
                },
                {
                  "components": [
                    {
                      "internalType": "int256",
                      "name": "quota",
                      "type": "int256"
                    },
                    {
                      "internalType": "int256",
                      "name": "used_quota",
                      "type": "int256"
                    },
                    {
                      "internalType": "uint64",
                      "name": "expiration",
                      "type": "uint64"
                    }
                  ],
                  "internalType": "struct CommonTypes.BeneficiaryTerm",
                  "name": "term",
                  "type": "tuple"
                }
              ],
              "internalType": "struct CommonTypes.ActiveBeneficiary",
              "name": "active",
              "type": "tuple"
            },
            {
              "components": [
                {
                  "internalType": "bytes",
                  "name": "new_beneficiary",
                  "type": "bytes"
                },
                {
                  "internalType": "int256",
                  "name": "new_quota",
                  "type": "int256"
                },
                {
                  "internalType": "uint64",
                  "name": "new_expiration",
                  "type": "uint64"
                },
                {
                  "internalType": "bool",
                  "name": "approved_by_beneficiary",
                  "type": "bool"
                },
                {
                  "internalType": "bool",
                  "name": "approved_by_nominee",
                  "type": "bool"
                }
              ],
              "internalType": "struct CommonTypes.PendingBeneficiaryChange",
              "name": "proposed",
              "type": "tuple"
            }
          ],
          "internalType": "struct MinerTypes.GetBeneficiaryReturn",
          "name": "",
          "type": "tuple"
        }
      ],
      "stateMutability": "view",
      "type": "function"
    },
    {
      "inputs": [],
      "name": "get_owner",
      "outputs": [
        {
          "components": [
            {
              "internalType": "bytes",
              "name": "owner",
              "type": "bytes"
            }
          ],
          "internalType": "struct MinerTypes.GetOwnerReturn",
          "name": "",
          "type": "tuple"
        }
      ],
      "stateMutability": "view",
      "type": "function"
    },
    {
      "inputs": [],
      "name": "get_sector_size",
      "outputs": [
        {
          "components": [
            {
              "internalType": "uint64",
              "name": "sector_size",
              "type": "uint64"
            }
          ],
          "internalType": "struct MinerTypes.GetSectorSizeReturn",
          "name": "params",
          "type": "tuple"
        }
      ],
      "stateMutability": "view",
      "type": "function"
    },
    {
      "inputs": [],
      "name": "get_vesting_funds",
      "outputs": [
        {
          "components": [
            {
              "components": [
                {
                  "internalType": "int64",
                  "name": "epoch",
                  "type": "int64"
                },
                {
                  "internalType": "int256",
                  "name": "amount",
                  "type": "int256"
                }
              ],
              "internalType": "struct CommonTypes.VestingFunds[]",
              "name": "vesting_funds",
              "type": "tuple[]"
            }
          ],
          "internalType": "struct MinerTypes.GetVestingFundsReturn",
          "name": "params",
          "type": "tuple"
        }
      ],
      "stateMutability": "pure",
      "type": "function"
    },
    {
      "inputs": [
        {
          "components": [
            {
              "internalType": "bytes",
              "name": "addr",
              "type": "bytes"
            }
          ],
          "internalType": "struct MinerTypes.IsControllingAddressParam",
          "name": "params",
          "type": "tuple"
        }
      ],
      "name": "is_controlling_address",
      "outputs": [
        {
          "components": [
            {
              "internalType": "bool",
              "name": "is_controlling",
              "type": "bool"
            }
          ],
          "internalType": "struct MinerTypes.IsControllingAddressReturn",
          "name": "",
          "type": "tuple"
        }
      ],
      "stateMutability": "pure",
      "type": "function"
    },
    {
      "inputs": [
        {
          "internalType": "bytes",
          "name": "addr",
          "type": "bytes"
        }
      ],
      "name": "set_owner",
      "outputs": [],
      "stateMutability": "nonpayable",
      "type": "function"
    }
  ],
  "bytecode": "0x60806040526000600160006101000a81548160ff0219169083151502179055503480156200002c57600080fd5b5060405162001ac138038062001ac1833981810160405281019062000052919062000408565b8060009081620000639190620006a4565b50610800600660008060048111156200008157620000806200078b565b5b60048111156200009657620000956200078b565b5b815260200190815260200160002060006101000a81548167ffffffffffffffff021916908367ffffffffffffffff160217905550628000006006600060016004811115620000e957620000e86200078b565b5b6004811115620000fe57620000fd6200078b565b5b815260200190815260200160002060006101000a81548167ffffffffffffffff021916908367ffffffffffffffff160217905550632000000060066000600260048111156200015257620001516200078b565b5b60048111156200016757620001666200078b565b5b815260200190815260200160002060006101000a81548167ffffffffffffffff021916908367ffffffffffffffff1602179055506408000000006006600060036004811115620001bc57620001bb6200078b565b5b6004811115620001d157620001d06200078b565b5b815260200190815260200160002060006101000a81548167ffffffffffffffff021916908367ffffffffffffffff160217905550641000000000600660006004808111156200022557620002246200078b565b5b60048111156200023a57620002396200078b565b5b815260200190815260200160002060006101000a81548167ffffffffffffffff021916908367ffffffffffffffff16021790555050620007ba565b6000604051905090565b600080fd5b600080fd5b600080fd5b600080fd5b6000601f19601f8301169050919050565b7f4e487b7100000000000000000000000000000000000000000000000000000000600052604160045260246000fd5b620002de8262000293565b810181811067ffffffffffffffff821117156200030057620002ff620002a4565b5b80604052505050565b60006200031562000275565b9050620003238282620002d3565b919050565b600067ffffffffffffffff821115620003465762000345620002a4565b5b620003518262000293565b9050602081019050919050565b60005b838110156200037e57808201518184015260208101905062000361565b60008484015250505050565b6000620003a16200039b8462000328565b62000309565b905082815260208101848484011115620003c057620003bf6200028e565b5b620003cd8482856200035e565b509392505050565b600082601f830112620003ed57620003ec62000289565b5b8151620003ff8482602086016200038a565b91505092915050565b6000602082840312156200042157620004206200027f565b5b600082015167ffffffffffffffff81111562000442576200044162000284565b5b6200045084828501620003d5565b91505092915050565b600081519050919050565b7f4e487b7100000000000000000000000000000000000000000000000000000000600052602260045260246000fd5b60006002820490506001821680620004ac57607f821691505b602082108103620004c257620004c162000464565b5b50919050565b60008190508160005260206000209050919050565b60006020601f8301049050919050565b600082821b905092915050565b6000600883026200052c7fffffffffffffffffffffffffffffffffffffffffffffffffffffffffffffffff82620004ed565b620005388683620004ed565b95508019841693508086168417925050509392505050565b6000819050919050565b6000819050919050565b6000620005856200057f620005798462000550565b6200055a565b62000550565b9050919050565b6000819050919050565b620005a18362000564565b620005b9620005b0826200058c565b848454620004fa565b825550505050565b600090565b620005d0620005c1565b620005dd81848462000596565b505050565b5b818110156200060557620005f9600082620005c6565b600181019050620005e3565b5050565b601f82111562000654576200061e81620004c8565b6200062984620004dd565b8101602085101562000639578190505b620006516200064885620004dd565b830182620005e2565b50505b505050565b600082821c905092915050565b6000620006796000198460080262000659565b1980831691505092915050565b600062000694838362000666565b9150826002028217905092915050565b620006af8262000459565b67ffffffffffffffff811115620006cb57620006ca620002a4565b5b620006d7825462000493565b620006e482828562000609565b600060209050601f8311600181146200071c576000841562000707578287015190505b62000713858262000686565b86555062000783565b601f1984166200072c86620004c8565b60005b8281101562000756578489015182556001820191506020850194506020810190506200072f565b8683101562000776578489015162000772601f89168262000666565b8355505b6001600288020188555050505b505050505050565b7f4e487b7100000000000000000000000000000000000000000000000000000000600052602160045260246000fd5b6112f780620007ca6000396000f3fe608060405234801561001057600080fd5b50600436106100885760003560e01c8063a9b494a11161005b578063a9b494a114610103578063b062322a14610121578063d9fc907e14610151578063ddbc6f031461016f57610088565b80630ac298dc1461008d578063214c471c146100ab57806359cf9e17146100c957806369d23f4c146100e7575b600080fd5b61009561018b565b6040516100a2919061085e565b60405180910390f35b6100b361024b565b6040516100c091906109bd565b60405180910390f35b6100d1610305565b6040516100de91906109fb565b60405180910390f35b61010160048036038101906100fc9190610b5f565b61032b565b005b61010b610358565b6040516101189190610be7565b60405180910390f35b61013b60048036038101906101369190610c64565b6103ca565b6040516101489190610ce4565b60405180910390f35b6101596103eb565b6040516101669190610e38565b60405180910390f35b61018960048036038101906101849190610f32565b610527565b005b61019361066e565b60008080546101a190610faa565b9050036101ad57600080fd5b6040518060200160405280600080546101c590610faa565b80601f01602080910402602001604051908101604052809291908181526020018280546101f190610faa565b801561023e5780601f106102135761010080835404028352916020019161023e565b820191906000526020600020905b81548152906001019060200180831161022157829003601f168201915b5050505050815250905090565b610253610681565b6000600167ffffffffffffffff8111156102705761026f610a34565b5b6040519080825280602002602001820160405280156102a957816020015b610296610694565b81526020019060019003908161028e5790505b5090506040518060400160405280636373840960070b8152602001686c6b935b8bbd400000815250816000815181106102e5576102e4610fdb565b5b602002602001018190525060405180602001604052808281525091505090565b61030d6106b1565b604051806020016040528069021e19e0c9bab2400000815250905090565b600080805461033990610faa565b90501461034557600080fd5b806000908161035491906111c0565b5050565b6103606106c4565b6040518060200160405280600660006001600481111561038357610382611292565b5b600481111561039557610394611292565b5b815260200190815260200160002060009054906101000a900467ffffffffffffffff1667ffffffffffffffff16815250905090565b6103d26106e1565b6040518060200160405280600015158152509050919050565b6103f36106f6565b600160009054906101000a900460ff1661040c57600080fd5b61041461071c565b6040518060400160405280600260405180604001604052908160008201805461043c90610faa565b80601f016020809104026020016040519081016040528092919081815260200182805461046890610faa565b80156104b55780601f1061048a576101008083540402835291602001916104b5565b820191906000526020600020905b81548152906001019060200180831161049857829003601f168201915b505050505081526020016001820160405180606001604052908160008201548152602001600182015481526020016002820160009054906101000a900467ffffffffffffffff1667ffffffffffffffff1667ffffffffffffffff16815250508152505081526020018281525091505090565b600160009054906101000a900460ff1661060f57600060405180606001604052808360200151815260200160008152602001836040015167ffffffffffffffff168152509050604051806040016040528083600001518152602001828152506002600082015181600001908161059d91906111c0565b50602082015181600101600082015181600001556020820151816001015560408201518160020160006101000a81548167ffffffffffffffff021916908367ffffffffffffffff160217905550505090505060018060006101000a81548160ff0219169083151502179055505061066b565b80600001516002600001908161062591906111c0565b5080602001516002600101600001819055508060400151600260010160020160006101000a81548167ffffffffffffffff021916908367ffffffffffffffff1602179055505b50565b6040518060200160405280606081525090565b6040518060200160405280606081525090565b6040518060400160405280600060070b8152602001600081525090565b6040518060200160405280600081525090565b6040518060200160405280600067ffffffffffffffff1681525090565b60405180602001604052806000151581525090565b6040518060400160405280610709610759565b815260200161071661071c565b81525090565b6040518060a001604052806060815260200160008152602001600067ffffffffffffffff1681526020016000151581526020016000151581525090565b604051806040016040528060608152602001610773610779565b81525090565b60405180606001604052806000815260200160008152602001600067ffffffffffffffff1681525090565b600081519050919050565b600082825260208201905092915050565b60005b838110156107de5780820151818401526020810190506107c3565b60008484015250505050565b6000601f19601f8301169050919050565b6000610806826107a4565b61081081856107af565b93506108208185602086016107c0565b610829816107ea565b840191505092915050565b6000602083016000830151848203600086015261085182826107fb565b9150508091505092915050565b600060208201905081810360008301526108788184610834565b905092915050565b600081519050919050565b600082825260208201905092915050565b6000819050602082019050919050565b60008160070b9050919050565b6108c2816108ac565b82525050565b6000819050919050565b6108db816108c8565b82525050565b6040820160008201516108f760008501826108b9565b50602082015161090a60208501826108d2565b50505050565b600061091c83836108e1565b60408301905092915050565b6000602082019050919050565b600061094082610880565b61094a818561088b565b93506109558361089c565b8060005b8381101561098657815161096d8882610910565b975061097883610928565b925050600181019050610959565b5085935050505092915050565b600060208301600083015184820360008601526109b08282610935565b9150508091505092915050565b600060208201905081810360008301526109d78184610993565b905092915050565b6020820160008201516109f560008501826108d2565b50505050565b6000602082019050610a1060008301846109df565b92915050565b6000604051905090565b600080fd5b600080fd5b600080fd5b600080fd5b7f4e487b7100000000000000000000000000000000000000000000000000000000600052604160045260246000fd5b610a6c826107ea565b810181811067ffffffffffffffff82111715610a8b57610a8a610a34565b5b80604052505050565b6000610a9e610a16565b9050610aaa8282610a63565b919050565b600067ffffffffffffffff821115610aca57610ac9610a34565b5b610ad3826107ea565b9050602081019050919050565b82818337600083830152505050565b6000610b02610afd84610aaf565b610a94565b905082815260208101848484011115610b1e57610b1d610a2f565b5b610b29848285610ae0565b509392505050565b600082601f830112610b4657610b45610a2a565b5b8135610b56848260208601610aef565b91505092915050565b600060208284031215610b7557610b74610a20565b5b600082013567ffffffffffffffff811115610b9357610b92610a25565b5b610b9f84828501610b31565b91505092915050565b600067ffffffffffffffff82169050919050565b610bc581610ba8565b82525050565b602082016000820151610be16000850182610bbc565b50505050565b6000602082019050610bfc6000830184610bcb565b92915050565b600080fd5b600080fd5b600060208284031215610c2257610c21610c02565b5b610c2c6020610a94565b9050600082013567ffffffffffffffff811115610c4c57610c4b610c07565b5b610c5884828501610b31565b60008301525092915050565b600060208284031215610c7a57610c79610a20565b5b600082013567ffffffffffffffff811115610c9857610c97610a25565b5b610ca484828501610c0c565b91505092915050565b60008115159050919050565b610cc281610cad565b82525050565b602082016000820151610cde6000850182610cb9565b50505050565b6000602082019050610cf96000830184610cc8565b92915050565b606082016000820151610d1560008501826108d2565b506020820151610d2860208501826108d2565b506040820151610d3b6040850182610bbc565b50505050565b60006080830160008301518482036000860152610d5e82826107fb565b9150506020830151610d736020860182610cff565b508091505092915050565b600060a0830160008301518482036000860152610d9b82826107fb565b9150506020830151610db060208601826108d2565b506040830151610dc36040860182610bbc565b506060830151610dd66060860182610cb9565b506080830151610de96080860182610cb9565b508091505092915050565b60006040830160008301518482036000860152610e118282610d41565b91505060208301518482036020860152610e2b8282610d7e565b9150508091505092915050565b60006020820190508181036000830152610e528184610df4565b905092915050565b610e63816108c8565b8114610e6e57600080fd5b50565b600081359050610e8081610e5a565b92915050565b610e8f81610ba8565b8114610e9a57600080fd5b50565b600081359050610eac81610e86565b92915050565b600060608284031215610ec857610ec7610c02565b5b610ed26060610a94565b9050600082013567ffffffffffffffff811115610ef257610ef1610c07565b5b610efe84828501610b31565b6000830152506020610f1284828501610e71565b6020830152506040610f2684828501610e9d565b60408301525092915050565b600060208284031215610f4857610f47610a20565b5b600082013567ffffffffffffffff811115610f6657610f65610a25565b5b610f7284828501610eb2565b91505092915050565b7f4e487b7100000000000000000000000000000000000000000000000000000000600052602260045260246000fd5b60006002820490506001821680610fc257607f821691505b602082108103610fd557610fd4610f7b565b5b50919050565b7f4e487b7100000000000000000000000000000000000000000000000000000000600052603260045260246000fd5b60008190508160005260206000209050919050565b60006020601f8301049050919050565b600082821b905092915050565b60006008830261106c7fffffffffffffffffffffffffffffffffffffffffffffffffffffffffffffffff8261102f565b611076868361102f565b95508019841693508086168417925050509392505050565b6000819050919050565b6000819050919050565b60006110bd6110b86110b38461108e565b611098565b61108e565b9050919050565b6000819050919050565b6110d7836110a2565b6110eb6110e3826110c4565b84845461103c565b825550505050565b600090565b6111006110f3565b61110b8184846110ce565b505050565b5b8181101561112f576111246000826110f8565b600181019050611111565b5050565b601f821115611174576111458161100a565b61114e8461101f565b8101602085101561115d578190505b6111716111698561101f565b830182611110565b50505b505050565b600082821c905092915050565b600061119760001984600802611179565b1980831691505092915050565b60006111b08383611186565b9150826002028217905092915050565b6111c9826107a4565b67ffffffffffffffff8111156111e2576111e1610a34565b5b6111ec8254610faa565b6111f7828285611133565b600060209050601f83116001811461122a5760008415611218578287015190505b61122285826111a4565b86555061128a565b601f1984166112388661100a565b60005b828110156112605784890151825560018201915060208501945060208101905061123b565b8683101561127d5784890151611279601f891682611186565b8355505b6001600288020188555050505b505050505050565b7f4e487b7100000000000000000000000000000000000000000000000000000000600052602160045260246000fdfea2646970667358221220ae77419259ceb6a4881a95f8949c0cb98b46712ec59972e00e85d44b0accb3f764736f6c63430008110033",
  "linkReferences": {},
  "deployedLinkReferences": {}
}